:020000040800F2
:10000000100400206D0E0008450E0008470E000881
:10001000490E00084B0E00084D0E000800000000BD
:100020000000000000000000000000004F0E00086B
:10003000510E000800000000530E0008550E000885
:10004000990E00089D0E0008A10E0008A50E0008DC
:10005000A90E0008AD0E0008B10E0008B50E00088C
:10006000B90E0008BD0E0008C10E0008C50E00083C
:10007000C90E0008CD0E0008D10E0008D50E0008EC
:10008000D90E0008DD0E0008E10E0008E50E00089C
:10009000E90E0008ED0E0008F10E0008F50E00084C
:1000A000F90E0008FD0E0008010F0008050F0008FA
:1000B000090F00080D0F0008110F0008150F0008A8
:1000C000190F00081D0F0008210F0008250F000858
:1000D000290F00082D0F0008310F0008350F000808
:1000E000390F00083D0F0008410F0008450F0008B8
:1000F000490F00084D0F0008510F0008550F000868
:10010000590F00085D0F0008610F0008650F000817
:10011000690F00086D0F0008710F0008750F0008C7
:10012000790F00087D0F0008810F0008850F000877
:10013000890F00088D0F0008910F0008950F000827
:10014000990F00089D0F0008A10F0008A50F0008D7
:10015000A90F0008AD0F0008B10F0008B50F000887
:10016000B90F0008BD0F0008C10F0008C50F000837
:10017000C90F0008CD0F0008D10F000800000000D3
:10018000D50F0008D90F0008DD0F0008E10F0008A7
:10019000E50F0008E90F0008ED0F0008F10F000857
:1001A000F50F0008F90F0008FD0F00080110000806
:1001B00005100008091000080D10000811100008B3
:1001C0001510000819100008000000001D1000089C
:1001D0002110000825100008291000082D10000823
:1001E0003110000835100008391000083D100008D3
:1001F000411000084510000870B582B004000026C8
:10020000002C01D1012037E22078C00740F1848022
:10021000DFF87C06006810F00C0004280BD0DFF833
:100220007006006810F00C0008280ED1DFF8640694
:100230000068400209D5DFF85406006880036BD5DA
:100240006068002868D1012016E26068B0F5803F40
:1002500008D1DFF83806006850F48030DFF82C163B
:10026000086038E06068002810D1DFF820060068D8
:1002700030F48030DFF814160860DFF810060068EC
:1002800030F48020DFF80416086024E06068B0F5E0
:10029000A02F10D1DFF8F405006850F48020DFF8BB
:1002A000EC150860DFF8E405006850F48030DFF8F2
:1002B000DC1508600FE0DFF8D405006830F480300A
:1002C000DFF8C8150860DFF8C405006830F4802046
:1002D000DFF8B8150860606800280ED000F0EEFA6C
:1002E0000500DFF8A8050068800315D400F0E6FAE1
:1002F000401B6528F5D30320BEE100F0DFFA0500BE
:10030000DFF888050068800306D500F0D7FA401BA7
:100310006528F5D30320AFE12078800764D5DFF8A6
:100320007005006810F00C0F0BD0DFF86405006852
:1003300010F00C0008281AD1DFF8580500684002B8
:1003400015D4DFF848050068800704D5E068012867
:1003500001D0012090E1DFF83405006830F0F800AA
:10036000216950EAC100DFF8241508603CE0E0682C
:10037000002822D0DFF81405006850F00100DFF8F3
:100380000C15086000F09AFA0500DFF80005006817
:10039000800706D400F092FA401B0328F5D303200F
:1003A0006AE1DFF8E804006830F0F800216950EAFB
:1003B000C100DFF8D814086016E0DFF8D004006848
:1003C00040084000DFF8C414086000F077FA050028
:1003D000DFF8B8040068800706D500F06FFA401B0C
:1003E0000328F5D3032047E12078000730D5606962
:1003F000002816D0DFF8A004006850F00100DFF8F4
:100400009814086000F05AFA0500DFF88C040068C0
:1004100080071DD400F052FA401B0328F5D30320B7
:100420002AE1DFF87404006840084000DFF868142F
:10043000086000F043FA0500DFF85C0400688007FC
:1004400006D500F03BFA401B0328F5D3032013E147
:100450002078400740F1A680DFF848040068C0001B
:1004600010D4DFF84004006850F08050DFF83414F6
:100470000860DFF83004006810F0805000900098A9
:1004800001200600DFF820040068C00516D4DFF85C
:100490001804006850F48070DFF80C14086000F055
:1004A0000DFA0500DFF800040068C00506D400F06E
:1004B00005FA401B6528F5D30320DDE0A06801287C
:1004C00008D1DFF8E803006850F00100DFF8DC1322
:1004D000086037E0A068002810D1DFF8D00300687A
:1004E00040084000DFF8C4130860DFF8C00300686C
:1004F00030F00400DFF8B413086023E0A06805289A
:1005000010D1DFF8A803006850F00400DFF89C1356
:100510000860DFF89803006850F00100DFF88C13E2
:1005200008600FE0DFF88403006840084000DFF84F
:100530007C130860DFF87403006830F00400DFF813
:100540006C130860A068002810D000F0B7F905000F
:10055000DFF858030068800719D400F0AFF9401B9A
:1005600041F289318842F3D3032085E000F0A6F9F7
:100570000500DFF838030068800708D500F09EF911
:10058000401B41F289318842F3D3032074E0F6B274
:10059000012E07D1DFF80C03006830F08050DFF83F
:1005A00004130860A069002865D0DFF8E402006841
:1005B00010F00C0008285CD0A069022842D1DFF8B6
:1005C000CC02006830F08070DFF8C012086000F0E4
:1005D00075F90500DFF8B4020068800106D500F067
:1005E0006DF9401B0328F5D3032045E0E069216A3B
:1005F0000843616A50EA8110A16A891EC903090C87
:1006000009040843E16A50EA0160216B50EA017075
:10061000DFF880120860DFF87402006850F0807024
:10062000DFF86812086000F049F90500DFF85C02A5
:10063000006880011FD400F041F9401B0328F5D366
:10064000032019E0DFF84402006830F08070DFF822
:100650003C12086000F032F90500DFF83002006853
:10066000800108D500F02AF9401B0328F5D30320A8
:1006700002E0012000E0002076BD70B504000D000E
:100680000026002C01D10120B7E0DFF82402006829
:1006900010F00F00A84211D2DFF814020068000920
:1006A00000012843DFF808120860DFF80402006840
:1006B00010F00F00A84201D001209EE020788007B2
:1006C0001FD52078400707D5DFF8C401006850F433
:1006D000E050DFF8BC1108602078000707D5DFF88C
:1006E000B001006850F46040DFF8A4110860DFF842
:1006F000A001006830F0F000A1680843DFF8901115
:1007000008602078C00739D56068012806D1DFF875
:100710007C010068800312D401206EE0606802282A
:1007200006D1DFF868010068800108D4012064E088
:10073000DFF858010068800701D401205DE0DFF890
:10074000500100688008800061680843DFF84011AC
:10075000086000F0B3F80600DFF83401006810F01C
:100760000C006168B0EB810F08D000F0A7F8801B87
:1007700041F289318842EFD303203EE0DFF83001B7
:10078000006810F00F00854211D2DFF824010068E4
:10079000000900012843DFF818110860DFF8100194
:1007A000006810F00F00A84201D0012025E0207859
:1007B000400707D53648006830F4E050E168084348
:1007C000334908602078000708D53148006830F4C4
:1007D0006040216950EAC1002D49086000F00EF820
:1007E00034492B4A1268C2F30312895CC8402C4971
:1007F0000860002000F068F8002070BDF0B500240B
:100800000026002700252248006810F00C00002870
:1008100004D0042805D0082806D032E01F4805007F
:1008200031E0254805002EE01A48006810F03F002E
:1008300004001848006840020CD516480068C0F350
:1008400088101D49A1FB00012200002300F062F87E
:1008500006000BE00F480068C0F388100F49A1FBA9
:1008600000012200002300F055F806000948006846
:10087000C0F30140401C40000700B6FBF7F0050044
:1008800001E0064805002800F0BD000000380240E5
:100890000838024004380240743802400024F40052
:1008A00004000020403802400070004070380240D0
:1008B000003C02405C0E000840787D010148006861
:1008C000704700BF0800002010B504004FF47A7094
:1008D0000D490978B0FBF1F00C490968B1FBF0F063
:1008E00000F007F9002801D001200CE0102C09D2FB
:1008F000002221005FF0FF3000F0E8F804480460B7
:10090000002000E0012010BD0C00002004000020A9
:10091000000000201B4213D1094236D12AB184467F
:10092000B0FBF2F002FB10C2704700F0F7B8FCD346
:100930000022002370470B000200002100207047B6
:10094000904271EB030CF6D370B5B1FA81F4B3FAAF
:1009500083F52C1BA340C4F1200532FA05F633437E
:10096000A2405FF00046E64002E05B085FEA320228
:10097000841A71EB030524BF204629467641F4D33F
:1009800002000B003000002170BD012ACFD970B5E4
:10099000140C20D0B1FA81F4B2FA82F5C4F120042B
:1009A0006419B4F12006D6D3B2405FF00044F4409D
:1009B000002502E052085FEA3303C61A71EB020E0B
:1009C00024BF3046714664416D41F3D302000B00F1
:1009D0002000290070BD0C46B1FBF2F102FB11456D
:1009E0002D0445EA1045B5FBF2F402FB145580B224
:1009F00040EA0545B5FBF2F002FB105240EA044024
:100A000070BD000010F007023D4B1B6819004FF647
:100A1000FF0319403B4B53EA02231943384B19603B
:100A2000704737480068C0F30220704710B440B2E6
:100A3000002808D50A01344B40B210F00F042344BB
:100A400003F8042C03E00A01304B40B21A5410BCE6
:100A5000704770B4030013F00704D4F10706052EA5
:100A600001D3042001E0D4F10700261D072E01D296
:100A7000002500E0E51E012616FA00F0401E0840A1
:100A8000A8400121A940491E1140084370BC70478D
:100A900010B50400601EB0F1807F01D301200EE08C
:100AA000601E1B4908600F215FF0FF30FFF7BEFF9B
:100AB000002018490860072017490860002010BD71
:100AC00010B504002000FFF79DFF10BDF8B504002D
:100AD0000D0016000027FFF7A4FF070032002900D1
:100AE0003800FFF7B6FF0100200040B2FFF79EFF7D
:100AF000F1BD10B504002000FFF7CAFF10BD0000D3
:100B00000CED00E00000FA0518ED00E000E400E064
:100B100014E000E018E000E010E000E070470000A2
:100B200010B582B03E4C3F48006850F002003D498D
:100B300008603C48006810F002000090009800F047
:100B400079F800F025F8206850F00100206014F1D9
:100B50000C00006850F0020014F10C01086014F160
:100B6000140000684008400014F1140108604FF4BC
:100B70007A7000F06BF814F11400006850F0010076
:100B800014F1140108604FF47A7000F05FF8E6E7A2
:100B900000B593B006A8342100F06CF801A8142128
:100BA00000F068F82048006850F080501E49086046
:100BB0001D48006810F08050009000981B480068A5
:100BC00030F4404050F480401849086017480068ED
:100BD00010F44040009000980220069001200990F7
:100BE00010200A9000200C9006A8FFF705FB0028B3
:100BF00001D000F01DF80F2001900020029000208D
:100C000003900020049000200590002101A8FFF728
:100C100034FD002801D000F00BF813B000BD000037
:100C2000000402403038024040380240007000406A
:100C30007047000080B50320FFF742FF0020FFF758
:100C400043FE00F01BF8002002BD000070B5040058
:100C5000FFF734FE0500260016F1010F02D004480C
:100C600000783618FFF72AFE401BB042FAD370BD59
:100C70000C000020002200F021B8000081B00D48D7
:100C8000006850F080500B4908600A48006810F076
:100C90008050009000980848006850F48040064951
:100CA00008600548006810F480400090009801B08A
:100CB000704700BF403802404438024000B500BFD2
:100CC000130096469446103928BFA0E80C50FAD875
:100CD0005FEA417C28BF0CC048BF40F8042BC9071D
:100CE00028BF20F8022B48BF00F8012B00BD0000F0
:100CF0001248006850F470001049086010480068FD
:100D000050F001000E49086000200E4908600C48B0
:100D100000680D4908400A4908600C480C49086001
:100D20000748006830F48020054908600020094920
:100D300008605FF0006008490860704788ED00E0D7
:100D40000038024008380240FFFFF6FE1030002451
:100D5000043802400C38024008ED00E010B450F8AE
:100D6000041B79B10268436802440830DC0744BFC1
:100D7000A9F10104E31852F8044B43F8044B091F8E
:100D8000F9D1ECE710BC704710B507497944183128
:100D9000064C7C44163404E00A68081D1144884758
:100DA0000146A142F8D110BD2C0000003C0000001B
:100DB0004EF68851CEF20001086840F470000860D9
:100DC000BFF34F8FBFF36F8F4FF00070E1EE100A4B
:100DD0007047000089FFFFFF10000000A000000026
:100DE000000000200000000000F00BF8002801D0F7
:100DF000FFF7CAFF0020AFF30080FFF791FE00F07D
:100E000002F80120704700F001B80000074638469C
:100E100000F002F8FBE7000080B5AFF30080024A63
:100E200011001820ABBEFBE7260002000348006853
:100E300003490978401801490860704708000020FC
:100E40000C0000207047FEE7FEE7FEE7FEE7704774
:100E50007047704780B5FFF7E9FF01BD0000000053
:100E6000000000000102030406070809014880474A
:100E700001480047F10C00088D0E0008100000002A
:100E80000024F4000000000001000000AFF3008027
:100E9000FFF78EFFFFF7A8FFFFF7FEBFFFF7FEBFCC
:100EA000FFF7FEBFFFF7FEBFFFF7FEBFFFF7FEBF76
:100EB000FFF7FEBFFFF7FEBFFFF7FEBFFFF7FEBF66
:100EC000FFF7FEBFFFF7FEBFFFF7FEBFFFF7FEBF56
:100ED000FFF7FEBFFFF7FEBFFFF7FEBFFFF7FEBF46
:100EE000FFF7FEBFFFF7FEBFFFF7FEBFFFF7FEBF36
:100EF000FFF7FEBFFFF7FEBFFFF7FEBFFFF7FEBF26
:100F0000FFF7FEBFFFF7FEBFFFF7FEBFFFF7FEBF15
:100F1000FFF7FEBFFFF7FEBFFFF7FEBFFFF7FEBF05
:100F2000FFF7FEBFFFF7FEBFFFF7FEBFFFF7FEBFF5
:100F3000FFF7FEBFFFF7FEBFFFF7FEBFFFF7FEBFE5
:100F4000FFF7FEBFFFF7FEBFFFF7FEBFFFF7FEBFD5
:100F5000FFF7FEBFFFF7FEBFFFF7FEBFFFF7FEBFC5
:100F6000FFF7FEBFFFF7FEBFFFF7FEBFFFF7FEBFB5
:100F7000FFF7FEBFFFF7FEBFFFF7FEBFFFF7FEBFA5
:100F8000FFF7FEBFFFF7FEBFFFF7FEBFFFF7FEBF95
:100F9000FFF7FEBFFFF7FEBFFFF7FEBFFFF7FEBF85
:100FA000FFF7FEBFFFF7FEBFFFF7FEBFFFF7FEBF75
:100FB000FFF7FEBFFFF7FEBFFFF7FEBFFFF7FEBF65
:100FC000FFF7FEBFFFF7FEBFFFF7FEBFFFF7FEBF55
:100FD000FFF7FEBFFFF7FEBFFFF7FEBFFFF7FEBF45
:100FE000FFF7FEBFFFF7FEBFFFF7FEBFFFF7FEBF35
:100FF000FFF7FEBFFFF7FEBFFFF7FEBFFFF7FEBF25
:10100000FFF7FEBFFFF7FEBFFFF7FEBFFFF7FEBF14
:10101000FFF7FEBFFFF7FEBFFFF7FEBFFFF7FEBF04
:10102000FFF7FEBFFFF7FEBFFFF7FEBFFFF7FEBFF4
:10103000FFF7FEBFFFF7FEBFFFF7FEBFFFF7FEBFE4
:08104000FFF7FEBFFFF7FEBF42
:0400000508000E8D54
:00000001FF
