:020000040800F2
:1000000010040020510B00082D0B00082F0B0008D6
:10001000310B0008330B0008350B0008000000000E
:10002000000000000000000000000000370B000886
:10003000390B0008000000003B0B00083D0B0008D6
:100040007D0B0008810B0008850B0008890B000858
:100050008D0B0008910B0008950B0008990B000808
:100060009D0B0008A10B0008A50B0008A90B0008B8
:10007000AD0B0008B10B0008B50B0008B90B000868
:10008000BD0B0008C10B0008C50B0008C90B000818
:10009000CD0B0008D10B0008D50B0008D90B0008C8
:1000A000DD0B0008E10B0008E50B0008E90B000878
:1000B000ED0B0008F10B0008F50B0008F90B000828
:1000C000FD0B0008010C0008050C0008090C0008D5
:1000D0000D0C0008110C0008150C0008190C000884
:1000E0001D0C0008210C0008250C0008290C000834
:1000F0002D0C0008310C0008350C0008390C0008E4
:100100003D0C0008410C0008450C0008490C000893
:100110004D0C0008510C0008550C0008590C000843
:100120005D0C0008610C0008650C0008690C0008F3
:100130006D0C0008710C0008750C0008790C0008A3
:100140007D0C0008810C0008850C0008890C000853
:100150008D0C0008910C0008950C0008990C000803
:100160009D0C0008A10C0008A50C0008A90C0008B3
:10017000AD0C0008B10C0008B50C00080000000030
:10018000B90C0008BD0C0008C10C0008C50C000823
:10019000C90C0008CD0C0008D10C0008D50C0008D3
:1001A000D90C0008DD0C0008E10C0008E50C000883
:1001B000E90C0008ED0C0008F10C0008F50C000833
:1001C000F90C0008FD0C000800000000010D0008FB
:1001D000050D0008090D00080D0D0008110D00089F
:1001E000150D0008190D00081D0D0008210D00084F
:1001F000250D0008290D00082DE9F041040082B00A
:100200004FF0000817D02078DFF80C54C00747D50E
:10021000A86800F00C00042807D0A86800F00C00C3
:1002200008280AD16868400207D52868800337D5B6
:100230006068002834D1012041E16068B0F5803F5A
:1002400009D008B928680AE0B0F5A02F286806D1BF
:1002500040F480202860286840F4803005E020F4D5
:1002600080302860286820F480202860606858B1B9
:1002700000F0E2F907462868800311D400F0DCF9A9
:10028000C01B6528F7D317E100F0D6F907462868A8
:10029000800305D500F0D0F9C01B6528F7D30BE12A
:1002A0002078800718D5A86810F00C0F07D0A86830
:1002B00000F00C00082825D16868400222D4286884
:1002C000800702D5E0680128B5D12868216920F0AF
:1002D000F80040EAC10028602078000743D5606933
:1002E0000028686F30D040F00100686700F0A4F982
:1002F0000746686F800736D400F09EF9C01B0328BC
:10030000F7D3D9E0E068002828680ED040F001005B
:10031000286000F091F9074628688007D5D400F0DE
:100320008BF9C01B0328F7D3C6E0400840002860C3
:1003300000F082F9074628688007CDD500F07CF9E7
:10034000C01B0328F7D3B7E040084000686700F0FF
:1003500073F90746686F800705D500F06DF9C01B7B
:100360000328F7D3A8E0207840075CD5286CC000AC
:100370000AD4286C4FF0010840F080502864286CA3
:1003800000F0805000900098DFF898623068C00557
:100390000FD4306840F48070306000F04DF90746AB
:1003A0003068C00505D400F047F9C01B6528F7D3B5
:1003B00082E0A068012808D008B9286F09E0052864
:1003C000286F06D140F004002867286F40F0010034
:1003D00005E0400840002867286F20F004002867E7
:1003E000A06841F2893658B100F026F90746286F17
:1003F000800711D400F020F9C01BB042F7D35BE0B6
:1004000000F01AF90746286F800705D500F014F9A7
:10041000C01BB042F7D34FE0B8F1000F03D0286CF7
:1004200020F080502864A069002847D0A96801F016
:100430000C0108293FF4FFAE0228286820F08070E4
:1004400028602ED100F0F8F807462868800105D50D
:1004500000F0F2F8C01B0328F7D32DE0E069216A11
:100460000843616A40EA8110A16A891EC903090C28
:1004700040EA0140E16A40EA0160216B40EA017014
:100480006860286840F08070286000F0D5F8074662
:100490002868800112D400F0CFF8C01B0328F7D3DE
:1004A0000AE000F0C9F807462868800106D500F088
:1004B000C3F8C01B0328F7D3032000E00020BDE8E9
:1004C000F6812DE9F0410400884650D0564E306840
:1004D00000F00F00404502D200F06EF847D12068CE
:1004E0004D4F810712D5400703D5B86840F4E0505E
:1004F000B8602078000703D5B86840F46040B86061
:10050000B868A16820F0F0000843B8602078C00700
:1005100025D56068012802D13968890303E00228E3
:10052000396802D1890102D421E089071FD5B96851
:10053000890840EA8100B86000F07EF80546B86896
:10054000616800F00C00B0EB810F08D000F074F887
:10055000401B41F289318842F1D303202AE0306800
:1005600000F00F00804504D200F026F801D00120F1
:1005700020E02078400705D5B868E16820F4E05015
:100580000843B8602078000706D5B868216920F4D0
:10059000604040EAC100B86000F018F8BA6823492A
:1005A000C2F30312895CC8401C490860002000F0B7
:1005B00049F80020BDE8F0813068000948EA0010E1
:1005C0003060306800F00F004045704710B5184C9F
:1005D000606800F00C00042802D0082802D019E05E
:1005E000144810BD2068002300F03F02206840023C
:1005F0002068C0F388104CBF0E490949A1FB0001D7
:1006000000F040F82168C1F30141491C4900B0FBEA
:10061000F1F010BD024810BD003802400C0000206F
:100620000024F40000700040003C02404C0A000826
:100630000438024040787D0101484068704700BF9F
:100640000000002038B50D4D044629784FF47A702B
:10065000B0FBF1F00A490968B1FBF0F000F0C1F815
:1006600050B9102C08D2002221464FF0FF3000F084
:100670009BF8AC60002032BD012032BD000000209C
:100680000C0000201B4213D1094236D12AB1844606
:10069000B0FBF2F002FB10C2704700F0C1B8FCD30F
:1006A0000022002370470B00020000210020704749
:1006B000904271EB030CF6D370B5B1FA81F4B3FA42
:1006C00083F52C1BA340C4F1200532FA05F6334311
:1006D000A2405FF00046E64002E05B085FEA3202BB
:1006E000841A71EB030524BF204629467641F4D3D2
:1006F00002000B003000002170BD012ACFD970B577
:10070000140C20D0B1FA81F4B2FA82F5C4F12004BD
:100710006419B4F12006D6D3B2405FF00044F4402F
:10072000002502E052085FEA3303C61A71EB020E9D
:1007300024BF3046714664416D41F3D302000B0083
:100740002000290070BD0C46B1FBF2F102FB1145FF
:100750002D0445EA1045B5FBF2F402FB145580B2B6
:1007600040EA0545B5FBF2F002FB105240EA0440B6
:1007700070BD00000901002806D5244A00F00F00D2
:10078000104400F8041C7047214A11547047214955
:100790004FF6FF030A68000200F4E0601A401043BD
:1007A0001D4A10430860704738B51A4B1B68C3F3E5
:1007B0000223C3F10704052C28BF04241D1D072DA7
:1007C00034BF0023DB1E012505FA04F4641E21401A
:1007D000994005FA03F35B1E1A401143BDE834400B
:1007E000C8E7401EB0F1807F10B501D3012010BDD5
:1007F0000A4C0F2160604FF0FF30FFF7BBFF002075
:10080000A06007202060002010BD000018ED00E06F
:1008100000E400E00CED00E00000FA0510E000E06C
:10082000704700007FB54548454D0168002401AE82
:1008300041F008010160016801F008010091009990
:10084000016941F480210161006900F48020009079
:10085000009800F07DF800F038F83A494FF4A022F3
:10086000CA604FF420220A6077224A62012129607F
:1008700040F28361E96000202968686041F004016A
:10088000296041F008012960297F8906FCD5696A41
:1008900031542968401C0A2821F020012960F3D135
:1008A00021F00400286004E0A8620A20641C00F023
:1008B0005BF8305D0100F7D1E86918B1286820F0D5
:1008C00008002860002004B070BD00B593B006A8F1
:1008D000342100F05DF801A8142100F059F81A48FD
:1008E000016841F080510160006800F08050009084
:1008F00000981648016821F4404141F480410160AC
:10090000006800F44040009000980220069001200A
:10091000099010200A9000200C9006A8FFF76CFCAC
:100920000F20002101900020029003900490059078
:1009300001A8FFF7C6FD13B000BD0000303802402B
:1009400000480040000C0240403802400070004067
:1009500080B50320FFF71BFF0020FFF773FE00F0B8
:100960001BF8002002BD000038B50446FFF764FE06
:1009700014F1010F054602D0044800782418FFF74F
:100980005BFE401BA042FAD331BD00BF0000002037
:10099000002200F019B8000081B00A48016841F057
:1009A00080510160016801F0805100910099416817
:1009B00041F480414160406800F48040009000981C
:1009C00001B070474038024000B500BF13009646A2
:1009D0009446103928BFA0E80C50FAD85FEA417C51
:1009E00028BF0CC048BF40F8042BC90728BF20F817
:1009F000022B48BF00F8012B00BD00000E480F4A33
:100A0000016841F4700101600D48016841F0010185
:100A10000160002181600168114001600949416065
:100A2000016821F4802101600021C1604FF0006065
:100A3000054908607047000088ED00E0FFFFF6FE02
:100A4000003802401030002408ED00E000000000F3
:100A500000000000010203040607080910B450F862
:100A6000041B79B10268436802440830DC0744BFC4
:100A7000A9F10104E31852F8044B43F8044B091F91
:100A8000F9D1ECE710BC704710B50749794418312B
:100A9000064C7C44163404E00A68081D114488475B
:100AA0000146A142F8D110BD2C0000003C0000001E
:100AB0004EF68851CEF20001086840F470000860DC
:100AC000BFF34F8FBFF36F8F4FF00070E1EE100A4E
:100AD0007047000089FFFFFF100000008400000045
:100AE000000000200000000000F00BF8002801D0FA
:100AF000FFF7CAFF0020AFF30080FFF793FE00F07E
:100B000002F80120704700F001B80000074638469F
:100B100000F002F8FBE7000080B5AFF30080024A66
:100B200011001820ABBEFBE7260002007047FEE76D
:100B3000FEE7FEE7FEE770477047704700F000B839
:100B4000024841680278891841607047000000201F
:100B50000148804701480047FD090008710B000863
:100B60000100000000000000100000000024F4005C
:100B7000AFF30080FFF79CFFFFF7B6FFFFF7FEBF64
:100B8000FFF7FEBFFFF7FEBFFFF7FEBFFFF7FEBF99
:100B9000FFF7FEBFFFF7FEBFFFF7FEBFFFF7FEBF89
:100BA000FFF7FEBFFFF7FEBFFFF7FEBFFFF7FEBF79
:100BB000FFF7FEBFFFF7FEBFFFF7FEBFFFF7FEBF69
:100BC000FFF7FEBFFFF7FEBFFFF7FEBFFFF7FEBF59
:100BD000FFF7FEBFFFF7FEBFFFF7FEBFFFF7FEBF49
:100BE000FFF7FEBFFFF7FEBFFFF7FEBFFFF7FEBF39
:100BF000FFF7FEBFFFF7FEBFFFF7FEBFFFF7FEBF29
:100C0000FFF7FEBFFFF7FEBFFFF7FEBFFFF7FEBF18
:100C1000FFF7FEBFFFF7FEBFFFF7FEBFFFF7FEBF08
:100C2000FFF7FEBFFFF7FEBFFFF7FEBFFFF7FEBFF8
:100C3000FFF7FEBFFFF7FEBFFFF7FEBFFFF7FEBFE8
:100C4000FFF7FEBFFFF7FEBFFFF7FEBFFFF7FEBFD8
:100C5000FFF7FEBFFFF7FEBFFFF7FEBFFFF7FEBFC8
:100C6000FFF7FEBFFFF7FEBFFFF7FEBFFFF7FEBFB8
:100C7000FFF7FEBFFFF7FEBFFFF7FEBFFFF7FEBFA8
:100C8000FFF7FEBFFFF7FEBFFFF7FEBFFFF7FEBF98
:100C9000FFF7FEBFFFF7FEBFFFF7FEBFFFF7FEBF88
:100CA000FFF7FEBFFFF7FEBFFFF7FEBFFFF7FEBF78
:100CB000FFF7FEBFFFF7FEBFFFF7FEBFFFF7FEBF68
:100CC000FFF7FEBFFFF7FEBFFFF7FEBFFFF7FEBF58
:100CD000FFF7FEBFFFF7FEBFFFF7FEBFFFF7FEBF48
:100CE000FFF7FEBFFFF7FEBFFFF7FEBFFFF7FEBF38
:100CF000FFF7FEBFFFF7FEBFFFF7FEBFFFF7FEBF28
:100D0000FFF7FEBFFFF7FEBFFFF7FEBFFFF7FEBF17
:100D1000FFF7FEBFFFF7FEBFFFF7FEBFFFF7FEBF07
:0C0D2000FFF7FEBFFFF7FEBFFFF7FEBFAE
:0400000508000B7173
:00000001FF
